:020000040800F2
:10000000E0400020B102000813340008E52D00088C
:1000100011340008A9040008094F0008000000007E
:10002000000000000000000000000000F1010008D6
:10003000AB040008000000004D020008D93E000893
:10004000CB020008CB020008CB020008CB0200085C
:10005000CB020008CB020008CB020008CB0200084C
:10006000CB020008CB020008CB020008CB0200083C
:10007000CB020008CB020008CB020008CB0200082C
:10008000CB02000800000000CB020008CB020008F1
:10009000CB020008CB020008CB020008CB0200080C
:1000A000CB020008CB020008CB020008CB020008FC
:1000B000693F0008CB020008CB020008CB02000811
:1000C000CB020008CB020008CB020008CB020008DC
:1000D000CB020008CB020008F14E0008FD4E0008DC
:1000E000CB020008CB020008CB020008CB020008BC
:1000F000CB020008CB020008CB0200080000000081
:1001000000000000CB02000800000000CB02000845
:10011000CB02000800000000CB020008CB02000860
:10012000CB020008CB020008CB020008CB0200087B
:10013000CB0200080000000000000000CB02000815
:10014000CB020008CB020008000000000000000005
:10015000000000000000000000000000000000009F
:10016000000000000000000000000000CB020008BA
:10017000CB020008000000000000000000000000AA
:1001800000000000CB02000800000000000000009A
:10019000000000000000000000000000000000005F
:1001A0000000000000000000CB020008CB020008A5
:1001B000CB020008CB020008CB02000800000000C0
:1001C00000000000CB02000800000000000000005A
:1001D000CB020008CB020008DFF810D000F0FCF8DA
:1001E000004800470D540008AFF30080E0400020B5
:1001F0002C4B19680868B0E8F04F80F30988BFF30A
:100200006F8F4FF0000080F31188704700000000EE
:1002100008480068006880F308884FF0000080F309
:10022000148862B661B6BFF34F8FBFF36F8F00DFE4
:1002300000BF00BF08ED00E0DFF80C00016841F4EA
:1002400070010160704700BF88ED00E0EFF30980A6
:10025000BFF36F8F134B1A681EF0100F08BF20ED0D
:10026000108A20E9F04F106009B44FF0500080F37D
:100270001188BFF34F8FBFF36F8F06F081F84FF0F7
:10028000000080F3118809BC19680868B0E8F04FD5
:100290001EF0100F08BFB0EC108A80F30988BFF37E
:1002A0006F8F704740000020EFF30580704700001B
:1002B0000648804706480047FEE7FEE7FEE7FEE700
:1002C000FEE7FEE7FEE7FEE7FEE7FEE7593F000830
:1002D000D90100082DE9F05F0546002092469B46B3
:1002E00088460646814640241BE02846414647464C
:1002F000224600F061F853465A46C01A914110D385
:1003000011461846224600F048F82D1A67EB0108FE
:100310004F4622460120002100F03FF817EB00096C
:100320004E41201EA4F10104DFDC484631462A4636
:100330004346BDE8F09F40EA01039B0703D009E074
:1003400008C9121F08C0042AFAD203E011F8013BC1
:1003500000F8013B521EF9D27047D2B201E000F81A
:10036000012B491EFBD270470022F6E710B5134659
:100370000A4604461946FFF7F0FF204610BD10B5A7
:10038000002200E0521C835C8C5CA34201D1002B54
:10039000F8D1D8B2E1B2401A10BD202A04DB203ACD
:1003A00000FA02F1002070479140C2F1200320FAC8
:1003B00003F3194390407047202A04DB203A21FAC6
:1003C00002F00021704721FA02F3D040C2F120026E
:1003D0009140084319467047064C074D06E0E06817
:1003E00040F0010394E8070098471034AC42F6D37C
:1003F000FFF7F6FE3C8F00085C8F0008F8B5044656
:10040000002000902068816811F0010F41D18168BF
:10041000214A11422ED18168D5432940491C81606F
:100420001E48806800F0E07000020DD51C481D4990
:100430000068B0FBF1F0401C00EB4000800000E0E1
:10044000401E00900028FBD100F0C2FE06461BE0D3
:10045000816811F0010F03D181682940491C816036
:1004600000F0B6FE801B02280ED920680068C04349
:10047000C00709D0E06D40F01000E065206E40F04C
:10048000010020660120F8BD20680168C943C90742
:10049000DED10020F8BD00003F00008000030050C6
:1004A0003C000020400D0300FEE7704772B6FEE7F7
:1004B0002DE9F047044690F858009CB00E464FF0E6
:1004C0000009012815D0012084F85800002517954F
:1004D000189520684FF0A04840450ED1284F00974E
:1004E000384602F0ECFC8246206802F0E8FC60B17D
:1004F0000EE002201CB0BDE8F087E06D40F0200067
:10050000E06584F858500120F4E7BAF1000F09D0F3
:10051000E06D40F02000E0654FF0010984F858508C
:100520004846E7E71748326840F61F71002A82689C
:1005300022F4604216D094F8383042EA43327368AD
:100540001A438260D8F80820BB6802F0010203F069
:1005500001031A43E2D1B36832681A4383688B43BC
:100560001A430BE08260D8F80820BB6802F0010251
:1005700003F001031A43D1D182688A438260CDE738
:1005800000010050000300502DE9F84F00270446F9
:10059000009790F85800DFF8E0930D46B846012820
:1005A00011D0012684F85860206802F084FC60B104
:1005B000E06D40F02000E0655FF0010784F85880AE
:1005C0003846BDE8F88F0220FBE7D5E900210C236F
:1005D000206803EA91131844036B01F01F014FF0E8
:1005E0001F0C0CFA01FCC2F3846223EA0C038A405C
:1005F00013430363206802F05EFC8246206802F029
:1006000056FC5AEA00003CD1AA6829682068B2F179
:10061000004F37D002F05FFC2068416921F00041B3
:10062000416120686969C268C2F3C1025200914009
:100630002A69042A31D000EB82002B68026EDFF8B1
:100640003CC303F0F84302EA0C020B431A4342F0A6
:100650000041016620682A69A96900EB8200026EE8
:1006600022F080720A430266297F226828690129E4
:1006700010D0002102EB8000026E22F000720A43CB
:1006800002667DE0002202F026FC2068416941F00C
:100690000041C5E74FF00071ECE7002102F001FCDA
:1006A000400320684FF0000172D002F0FAFB90FA8C
:1006B000A0F0B0FA80F1286842036ED090FAA0F062
:1006C000B0FA80F0814204D100221146206802F085
:1006D00011FC0121206802F0E4FB400320684FF088
:1006E00001015DD002F0DDFB90FAA0F0B0FA80F1DC
:1006F0002868420359D090FAA0F0B0FA80F0814205
:1007000004D100220121206802F0F4FB02212068BC
:1007100002F0C7FB400320684FF0020148D002F00E
:10072000C0FB90FAA0F0B0FA80F12868420344D0F0
:1007300090FAA0F0B0FA80F0814204D100220221A8
:10074000206802F0D7FB0321206802F0AAFB4003D7
:1007500020684FF0030133D002F0A3FB90FAA0F021
:10076000B0FA80F1286842032FD090FAA0F0B0FAD6
:1007700080F0814204D100220321206802F0BAFBFC
:100780002068816811F0010F22D0ACE000E004E0A5
:1007900002F087FBC0F384618DE7C0F3846091E7CA
:1007A00002F07FFBC0F38461A2E7C0F38460A6E798
:1007B00002F077FBC0F38461B7E7C0F38460BBE766
:1007C00002F06FFBC0F38461CCE7C0F38460D0E734
:1007D0002A7B296850F8B03FC1F3120C23EA0C03BE
:1007E00002F0180C664A22FA0CF20A401343036026
:1007F000E968494577D1286841031CD090FAA0F1F7
:10080000B1FA81F1491C01F01F0109294FEA403179
:1008100032D8002912D000BF90FAA0F1B1FA81F1CC
:1008200001F1010101F01F0106FA01F609D100BF33
:10083000C0F3846109E0C0F38461E3E7C0F384613D
:10084000EEE790FAA0F1B1FA81F101F1010101F0B6
:100850001F0146EA816102D1C0F3846003E090FA8F
:10086000A0F0B0FA80F000F1010000F01F0000EBF2
:10087000400041EA005132E000290ED090FAA0F188
:10088000B1FA81F101F1010101F01F0106FA01F64F
:1008900006D100BFC0F3846106E0C0F38461F1E7D4
:1008A00090FAA0F1B1FA81F101F1010101F01F010B
:1008B00046EA816102D1C0F3846003E090FAA0F0BF
:1008C000B0FA80F000F1010000F01F002D4A00EBAB
:1008D000400002EB005041EA000141F00071AA68BB
:1008E000206802F0F8FA28482A6802423FF466AE0F
:1008F00026488168264B01F0E0719A4202D0254BD0
:100900009A421CD10B021AD42268B2F1A04F7FF494
:1009100055AE826841F4000122F0E0720A43826021
:100920001D481E490068B0FBF1F0401C00EB400080
:10093000800000E0401E00900028FBD13EE6184DEC
:10094000184BAA4207D1CD0105D422689A42F5D0AE
:1009500041F0807109E0144DAA42EFD14A02EDD472
:1009600022689A42EAD041F48001826822F0E07263
:100970000A43826022E6000000007F4000F0FF038F
:10098000FFFF0700000020FE000008800003005069
:10099000000021C31000C0903C000020400D030067
:1009A000000052C700010050000084CB0068006CBA
:1009B00070470000F8B54FF0000504002E46009582
:1009C00002D0E06D10B107E00120F8BD204600F034
:1009D000EBF8266684F8586020688168C1F340719E
:1009E00019B18168684A1140816020688168C1F34B
:1009F000007189B98168654A114041F08051816078
:100A0000634864490068B0FBF1F04000801C00E0DE
:100A1000401E00900028FBD120688168C1F300715E
:100A200041B9E16D41F01001E165216E41F0010134
:100A30002166012502F03FFAE16DC90600D430B10C
:100A4000E06D40F01000E06501252846F8BDE06D3E
:100A500020F4807040F00200E0652068806810F0AB
:100A6000010F11D14FF0A04080684B4900F0010008
:100A7000896801F00101084306D14848616882682D
:100A800022F47C120A438260E168E06B627F0843D3
:100A9000A16841EA4231084394F8241040EA014039
:100AA000012904D1218D3E4A02EB41410843E16A0C
:100AB00029B101F47871226B014342EA01002268F6
:100AC000D168384B19400143D16020680169626BDD
:100AD00021F0406111430161206802F0E8F970BB28
:100AE000207F94F83810800340EA41022168C868EA
:100AF00044F2020398431043C8602069002820682C
:100B000001690AD041F480310161206850F8C01FAA
:100B100022696FF30D01114307E021F48031016177
:100B2000206850F8C01F6FF30D01016094F8400079
:100B300001280CD02068016921F001010161606980
:100B400001282068016B21F00F0111D013E0D4E9D6
:100B500011010843D4E913121143084321680A69BB
:100B600040F2FC739A43104340F001000861E6E74D
:100B7000226A521E11430163E06D20F0020040F032
:100B80000100E06561E70000C0FFFF5FC0FFFF7F7D
:100B90003C000020400D0300000100500003005005
:100BA0000000FEFF0740F0FF2DE9F04198B0044639
:100BB000142111A8FFF7D8FB44216846FFF7D4FBA6
:100BC0004FF40041206800268A03294D0327294C51
:100BD0004FF09048B0F1A04F10D0274B984244D12D
:100BE0000F926846009100F019FC08B1FFF75EFC17
:100BF0002868401C286001281FD026E00F92684614
:100C0000009100F00BFC08B1FFF750FC2868401C75
:100C10002860012807D1E06C40F40050E064E06CEB
:100C200000F400501690E06C40F00100E064E06CCD
:100C300000F001001690012010E0E06C40F400503C
:100C4000E064E06C00F400501690E06C40F00100AD
:100C5000E064E06C00F00100169002201396CDE9EC
:100C6000110711A9404600F085F918B0BDE8F081E0
:100C70002C00002000100240000100502DE9F0413E
:100C800004463B480F46816801F01F05A169082909
:100C90000FD085B1052D0ED0092D0CD0806800F441
:100CA000604060B1E06D40F02000E0650120BDE8EB
:100CB000F081082604E02068C068C007F1E7042638
:100CC00000F086FA804615E0781C13D000F080FA18
:100CD000A0EB0800B84200D867B92068006830422D
:100CE00008D1E06D40F00400E065002084F8580071
:100CF0000320DCE7206800683042E5D0E06D40F476
:100D00000070E065206802F0DEF880B1607F70B9A5
:100D10002068006800070AD5E06D20F48070E06567
:100D2000E06DC00403D4E06D40F00100E065114ABD
:100D300020684FF0A041904201D10B4600E00346ED
:100D4000834210D07DB1052D0DD0092D0BD09042DE
:100D500000D00146C968082E07D0490401D40C21EF
:100D600001600020A3E7C168F5E70821F8E700006B
:100D700000030050000100502DE9F04104463848BE
:100D8000806800F01F05206802F095F818B1022174
:100D90000846BDE8F08194F8580001280CD00120E5
:100DA00084F858002046FFF729FB01004FF00003AC
:100DB00004D084F85830EBE70220EAE7E06D40F613
:100DC0000162904340F48070E065264A20684FF04D
:100DD000A046904201D1374600E00746874200D046
:100DE0001DB9E76D27F48017E765E76DFF0404D5AB
:100DF000276E27F00607276600E023661C2707609A
:100E000084F858302068904201D1334600E0034610
:100E1000834215D0A5B1052D12D0092D10D0E36D58
:100E200043F48013E365904200D13046C0688001EE
:100E3000AED5E06D20F4005040F48050E065A7E7A7
:100E4000C268920105D5E26D22F4005242F480524C
:100E5000E2658268044B1A40121D826098E7000028
:100E60000003005000010050C0FFFF7F10B590F854
:100E7000253000210122022B03D00421C16301216E
:100E800022E003681C6824F00E041C60836C1C685C
:100E900024F480741C6003681C6824F001041C6046
:100EA00090F84430046C03F01F0302FA03F363600C
:100EB000D0E913345C60436D33B11C6824F4807452
:100EC0001C60D0E916345C6080F82520002280F890
:100ED0002420084610BD70B590F82520002401217B
:100EE0002346022A07D00422C26380F8251080F826
:100EF0002430012429E00268156825F00E051560EC
:100F00000268156825F001051560826C156825F4E6
:100F10008075156090F84420056C02F01F0201FAFC
:100F200002F26A60D0E913255560426D32B115684E
:100F300025F480751560D0E91625556080F82510D8
:100F400080F82430816B01B18847204670BD0000D5
:100F500070B5044600F03CF90546601C02D0044818
:100F60004068044400F034F9401BA042FAD370BD3D
:100F7000300000202DE9F04FDFF8209200230126F9
:100F80000324A9F1040B85B00F2709F1040AABF182
:100F9000040EFAE006FA03F52A407CD091F804C06A
:100FA0000CF0030CBCF1010F02D0BCF1020F26D1F2
:100FB000D0F808C0CDF800C04FEA430C04FA0CF892
:100FC000CDF810C0DDF800C02CEA080CCDF800C048
:100FD000D1F80C80DDF810C008FA0CF8DDF800C07C
:100FE00048EA0C08C0F80880D0F804C02CEA050CC8
:100FF0000D79C5F300159D4045EA0C0545600D7956
:10100000ED43AD070ED0C5684FEA430804FA08FC6B
:1010100025EA0C05D1F808C00CFA08FC4CEA050CCE
:10102000C0F80CC00D7905F00305022D16D1DD08BE
:1010300000EB850CCDF808C0DCF820805D074FEA96
:10104000D56C07FA0CF528EA05080D6905FA0CF5C8
:10105000DDF808C045EA0805CCF8205005684FEADD
:10106000430CCDF808C004FA0CFC25EA0C0591F8F5
:1010700004C00CF00308DDF808C008FA0CF848EAD0
:101080000508C0F800804D6815F4403F7CD0444D01
:10109000D5F860C000E077E04CF0010CC5F860C006
:1010A0002D6E23F0030C05F0010500953D4D6544C0
:1010B0000295AD684FEA837C4FEA1C7807FA08FC7A
:1010C00025EA0C05B0F1904F06D0DFF8DCC0604592
:1010D00005D14FF0010C20E04FF0000C1DE0DFF8CF
:1010E000CCC0604502D14FF0020C16E0DFF8C0C062
:1010F000604502D14FF0030C0FE0DFF8B8C0604547
:1011000002D14FF0040C08E0DFF8ACC0604502D11A
:101110004FF0050C01E04FF0060C0CFA08FC4CEA0D
:10112000050C029DC5F808C0D9F80050CC46D1F88E
:10113000048095435FEAC82800D51543CCF80050D9
:10114000DAF80050D446D1F8048095435FEA882845
:1011500000D51543CCF80050DBF80050DC46D1F840
:10116000048095435FEA883800D51543CCF80050D9
:10117000DEF80050F446D1F8048095435FEAC838A1
:1011800000D51543CCF800505B1C0A6832FA03F511
:101190007FF400AF05B0BDE8F08F00000804014007
:1011A0000010024000000140000400480008004810
:1011B000000C004800100048001400480069084076
:1011C00000D0012070470AB1816170478162704789
:1011D00001488068704700003000002002488168A4
:1011E00042681144816070473000002010B500242F
:1011F000032000F09BF80F2000F008F808B101244C
:1012000001E000F047F8204610BD000030B505466B
:101210001C4887B0816D41F001018165806D06A990
:1012200000F00100009001A800F02AFB00F048FB4C
:1012300015494FF08042B0FBF1F11448491E02609D
:10124000416040F2E7320021C0E90321816000F0F3
:1012500038FE040012D10D4800F084FE04000DD1C8
:101260001C2000F035F8102D07D2002229461C2042
:1012700000F03CF80648056000E0012407B0204675
:1012800030BD00000010024040420F00AC080020BA
:10129000300000200D4808B5016E41F001010166E3
:1012A000016E01F001010091816D41F08051816575
:1012B000806D002200F0805000900F21901E00F001
:1012C00015F8BDE8084000F0A1B800000010024089
:1012D000002809DB00F01F02012191404009800035
:1012E00000F1E020C0F8001170470000F0B40E4B90
:1012F0001B680C46C3F30223C3F10705042D00D974
:101300000425191D072901D2002300E0DB1E012658
:1013100006FA05F1491E214099409E40761E16406E
:101320003143F0BC03F016BE0CED00E0064900F0BE
:10133000070208684FF6FF03184040EA0220034AFC
:1013400010430860704700000CED00E00000FA0553
:101350002B492C4B0A6832214A432B4940B1B0F546
:10136000007F086829D020F4C06040F480602CE041
:101370000868C0F34120022804D051F8800F20F4FF
:10138000807022E0D1F8800020F48070C1F88000E5
:10139000086820F4C06040F400700860B2FBF3F00D
:1013A000401C00E0401E4A69520501D50028F9D1D1
:1013B000486940050AD503207047C0F34120022840
:1013C00006D051F8800F40F480700860002070470C
:1013D000D1F8800040F48070C1F88000086820F4E3
:1013E000C06040F400700860B2FBF3F0401C00E005
:1013F000401E4A695205DBD50028F9D1D8E7000024
:101400003C00002040420F0000700040024881680C
:1014100041F4804181607047007000402DE9F8433D
:101420000446006800269D4D00035ED5A86D002788
:10143000C00008D4A86D40F08050A865A86D0127B1
:1014400000F080500090DFF85892D9F8001041F475
:101450008071C9F80010FFF7BBFE804606E000BFB0
:10146000FFF7B6FEA0EB080002282BD8D9F8000041
:10147000C005F5D5D5F8900010F4407014D0216C5B
:10148000814211D0D5F89000D5F8901020F440702A
:1014900041F48031C5F89010D5F8901021F48031D6
:1014A000C5F89010C5F89000C00711D0FFF790FE66
:1014B000804641F2883907E0FFF78AFEA0EB080179
:1014C000494501D903260BE0D5F890008007F3D5F4
:1014D000D5F89000216C20F440700843C5F89000C6
:1014E0001FB1A86D20F08050A8652078C00707D0F4
:1014F000D5F88800616820F003000843C5F888002B
:101500002078800707D5D5F88800A16820F00C0066
:101510000843C5F888002078400707D5D5F888002B
:10152000E16820F030000843C5F888002078000703
:1015300007D5D5F88800216920F0C0000843C5F818
:1015400088002078800607D5D5F88800616920F4E6
:1015500040600843C5F888002078400607D5D5F8D4
:101560008800A16920F440500843C5F8880020781D
:10157000000607D5D5F88800E16920F4404008430B
:10158000C5F888002088C00507D5D5F88800216AED
:1015900020F440300843C5F888002088800507D52E
:1015A000D5F88800616A20F440200843C5F8880017
:1015B000208840050FD5D5F88800A16A20F4401096
:1015C0000843C5F88800A06AB0F5801F03D1E86819
:1015D00040F48010E860208800050FD5D5F8880019
:1015E000E16A20F440000843C5F88800E06AB0F5DD
:1015F000800F03D1E86840F48010E8602088C004C0
:101600000FD5D5F88800216B20F040700843C5F84D
:101610008800206BB0F1807F03D1E86840F480102F
:10162000E86020884FF0006180040ED5D5F888006E
:10163000626B20F040601043C5F88800606B884200
:1016400003D1E86840F48010E860208840040ED59B
:10165000D5F88800A26B20F040601043C5F88800E0
:10166000A06B884203D1E86840F48010E8602088CD
:1016700000040FD5D5F88800E16B20F040500843F6
:10168000C5F88800E06BB0F1805F03D1E86840F4F2
:101690008030E8603046BDE8F8830000001002406A
:1016A000007000402DE9F0470E4605004FF000079E
:1016B00025D0DFF8AC81D8F8000000F00F00B04270
:1016C0000CD2D8F8001021F00F013143C8F80010F7
:1016D000D8F8000000F00F00B04210D12968614C2A
:1016E000C80741F2883A5AD06868DFF87C9103282D
:1016F00008D0022820682DD0400500282CDB0120CE
:10170000BDE8F08720688001F9D5E06800F00302A9
:10171000E068C0F30310401C032A19D0534A00BFED
:10172000B2FBF0F0E268C2F306225043E268C2F373
:101730004162521C5200B0FBF2F0484517D9A06834
:1017400010F0F00F0CD0880711D5A86840B10EE05A
:10175000474AE5E78003D0E700F0D6F8484506D9C8
:10176000A06820F0F00040F08000A0608027A06812
:10177000696820F003000843A060FFF729FD814657
:1017800006E000BFFFF724FDA0EB090151453AD860
:10179000A068696800F00C00B0EB810FF2D12868F6
:1017A000810714D5400703D5A06840F4E060A0602D
:1017B0002878000705D5A06820F4605040F4E06068
:1017C000A060A068A96820F0F000084304E0802F22
:1017D00003D1A06820F0F000A060D8F800104046C7
:1017E00001F00F01B14216D9016821F00F01314318
:1017F0000160FFF7EDFC074607E000BFFFF7E8FCDC
:10180000C11B514501D903207AE7D8F8000000F048
:101810000F00B042F2D12878400705D5A068E968EA
:1018200020F4E0600843A0602878000706D5A0688F
:10183000296920F4605040EAC100A06000F064F81B
:10184000A1680C4AC1F30311515C01F01F01C840AB
:101850000949086009480068BDE8F047FFF7D6BCB1
:10186000002002400010024000B4C4040024F40030
:1018700000127A00C48E00083C00002030000020D6
:101880000F2202600C4A936803F0030343609368DD
:1018900003F0F0038360936803F4E063C36092682D
:1018A0004FF4E06303EAD20202610448006800F0EA
:1018B0000F00086070470000001002400020024046
:1018C0000548064900688968054AC1F30221515C50
:1018D00001F01F01C84070473C000020001002408A
:1018E000D48E00080548064900688968054AC1F396
:1018F000C221515C01F01F01C84070473C0000202C
:1019000000100240D48E0008184910B58868C0F352
:1019100081021748012A0BD08A684310C2F3810262
:10192000022A06D08A68C2F38102032A03D000206B
:1019300010BD184610BDCA6802F00304CA68C2F39D
:101940000312521C032C02D0B0FBF2F001E0B3FBF7
:10195000F2F0CA68C968C2F306225043C1F341617C
:10196000491C4900B0FBF1F010BD0000001002401E
:101970000024F4002DE9F84304007AD02078F84DD3
:10198000C00747D0A868E96800F00C0001F0030127
:101990000C2802D0082817D001E0032914D0606871
:1019A000B0F5803F17D0B0F5A02F286817D020F4ED
:1019B00080302860286820F4802028606068E0B1CA
:1019C000FFF706FC064614E02868800322D560680D
:1019D0000028D2D01EE0286840F48030EDE740F4C3
:1019E00080202860F7E700BFFFF7F2FB801B642828
:1019F00070D828688003F7D50CE0FFF7E9FB0646AE
:101A000005E000BFFFF7E4FB801B6428F0D82868DE
:101A10008003F7D4207880074CD5A868E96800F0E7
:101A20000C0001F003010C2802D004280DD001E0C5
:101A300002290AD0E068002828682BD040F4807082
:101A40002860FFF7C5FB064619E02868400502D567
:101A5000E068002891D06868217C20F0FE4040EAD0
:101A600001606860BF480068FFF7D0FB002800D124
:101A700020E072E1FFF7ACFB801B0228B8D8286891
:101A80004005F7D56868217C20F0FE4040EA0160FF
:101A900068600FE020F480702860FFF799FB06462D
:101AA00005E000BFFFF794FB801B0228A0D8286840
:101AB0004005F7D42078000729D560690028D5F8BB
:101AC000940013D040F00100C5F89400FFF780FBAC
:101AD000064606E090E000BFFFF77AFB801B022875
:101AE00086D8D5F894008007F6D510E020F00100E4
:101AF000C5F89400FFF76CFB064604E0FFF768FBAF
:101B0000801B022878D8D5F894008007F6D4207876
:101B1000400761D5A86D0026C00008D4A86D40F02C
:101B20008050A865A86D012600F0805000908E4876
:101B30000168C90511D40168804641F480710160D3
:101B4000FFF746FB074604E0FFF742FBC01B0228F5
:101B500052D8D8F80000C005F6D5A068012815D0E5
:101B60000528D5F8900016D020F00100C5F89000A7
:101B7000D5F8900020F00400C5F89000A06841F26C
:101B80008838B8B1FFF724FB07460EE0D5F890007F
:101B900040F00100F0E740F00400C5F89000F5E7E0
:101BA000FFF716FBC11B414526D8D5F890008007EA
:101BB000F6D50CE0FFF70CFB074604E0FFF708FB47
:101BC000C11B414518D8D5F890008007F6D41EB146
:101BD000A86D20F08050A8652078800629D5A069DE
:101BE0000028D5F8980013D040F00100C5F89800FF
:101BF000FFF7EEFA064606E075E000BFFFF7E8FAE9
:101C0000801B02286FD8D5F898008007F6D510E021
:101C100020F00100C5F89800FFF7DAFA064604E064
:101C2000FFF7D6FA801B02285DD8D5F89800800708
:101C3000F6D4E069F0B3A968C1F3810103295DD04E
:101C40000228286820F08070286003D0FFF7C0FACF
:101C500004464BE0FFF7BCFA064604E0FFF7B8FA8B
:101C6000801B02283FD828688001F7D4F4E90801D6
:101C70006FF00F0202EB01110843218A5204490858
:101C800002EB4151A26841EA02210843217D4FF055
:101C90007E42490802EB41610843217B40EAC16072
:101CA000E968324A11400843E860286840F08070D3
:101CB000286000E05EE0E86840F08070E860FFF7D0
:101CC00087FA044605E000BFFFF782FA001B0228EE
:101CD00009D828688001F7D54CE000BFFFF778FAF3
:101CE000001B022802D90320BDE8F8832868800180
:101CF000F4D4E8681E490840E8603BE00128F3D0CE
:101D0000E868226A00F00301914226D1616A00F07E
:101D1000F0020901103991421FD1A26A00F4FE417C
:101D2000B1EB022F19D194F82C2000F07841B1EBDF
:101D3000C26F12D1218E00F4C00249084905A1F5F5
:101D40000011914209D194F8341000F0C0604908A4
:101D50004906A1F1007181420CD00120C4E70000C6
:101D60000010024030000020007000400C809F01F5
:101D7000FCFFEEFE0020B7E7704770477047000099
:101D800030B590F83C20012A42D0012280F83C2056
:101D9000CA688B6822F440721A434B6822F480624E
:101DA0001A430B6822F400621A430B6922F4805232
:101DB0001A434B6922F400521A430B6B22F48042FF
:101DC0001A430B8B22F4702242EA0342CB6922F0C1
:101DD00080521A430F4D03680024AB4202D00E4DCF
:101DE000AB4210D10D8D22F4700242EA05520D6A09
:101DF00022F080722A434D6A22F000722A43C96A97
:101E000022F000520A435A6480F83C40002030BD62
:101E1000022030BD002C0140003401407047704763
:101E200070470000F0B590F83C20012A3AD0012517
:101E300080F83C50022280F83D2003685A689C6874
:101E4000194E1A4FB34201D0BB4204D122F4700C98
:101E50004A6842EA0C02DFF858C002EA0C02D1F8E4
:101E600000C04CEA020CC3F804C00268B2420DD0B4
:101E7000B2F1804F0AD00F4B9A4207D00E4B9A42D4
:101E800004D0BA4202D00D4B9A4204D1896824F0A2
:101E900080031943916080F83D50002180F83C1088
:101EA0000846F0BD0220F0BD002C01400034014086
:101EB0008FFFFFFD0004004000080040004001408B
:101EC000704710B5040003D094F83D0010B107E04E
:101ED000012010BD002084F83C00204600F022F8CC
:101EE000022084F83D00211D206802F043F8012003
:101EF00084F8480084F83E0084F83F0084F84000ED
:101F000084F8410084F8420084F8430084F84400D7
:101F100084F8450084F8460084F8470084F83D00C2
:101F2000002010BD08B50C4A01680C48914207D149
:101F3000016E41F400610166006E00F4006009E08A
:101F4000074A914207D1816D41F002018165806DA0
:101F500000F00200009008BD002C0140001002407B
:101F60000004004090F83D10012901D00120704785
:101F7000022180F83D100168CA6842F00102CA607F
:101F80000068104988420ED0B0F1804F0BD00E4946
:101F9000884208D00D49884205D00D49884202D0B8
:101FA0000C49884207D181680B4A1140062906D0A6
:101FB000B1F5803F03D0016841F0010101600020CC
:101FC00070470000002C0140000400400008004061
:101FD00000340140004001400700010070B5044694
:101FE00090F83C000025012814D0012684F83C60BC
:101FF000022084F83D0022689068364B184020F497
:102000007F409060086870282ED010DC10F00F0F11
:1020100003D021E04FF0020070BD4FEA2012072AE2
:102020001AD2DFE802F0525252524A3840002A4B8C
:10203000C21A984249D009DCB0F5805F0DD0B0F5E6
:10204000005F1CD0B0F1101F06D13EE0102A3CD03A
:10205000202A3AD0502A38D0012584F83D6000204B
:1020600084F83C00284670BDCB68D1E90121206886
:1020700001F0EBFF2068816841F0770109E0CB684F
:10208000D1E90121206801F0E0FF2068816841F476
:1020900080418160E1E7CA684968206802F080F900
:1020A0005021206806E0CA684968206802F089F972
:1020B0006021206801F0D4FFCFE7CA684968206832
:1020C00002F06EF940212068F4E7226801461046CC
:1020D000F0E7000088FFCEFF2000100070472DE9D8
:1020E000F04104460068C66805694FF00007A9077B
:1020F00013D5B10711D5F91E0161012020772068A1
:1021000080698007204602D0FFF7E8FF04E000F076
:10211000F3F8204600F0B5F92777680716D5700761
:1021200014D521686FF00400086102202077206830
:10213000806910F4407F204602D0FFF7CFFF04E013
:1021400000F0DAF8204600F09CF92777280715D52B
:10215000300713D521686FF008000861042020774C
:102160002068C0698007204602D0FFF7B7FF04E06F
:1021700000F0C2F8204600F084F92777E80616D56B
:10218000F00614D521686FF0100008610820207750
:102190002068C06910F4407F204602D0FFF79EFF00
:1021A00004E000F0A9F8204600F06BF92777E80773
:1021B00008D0F00706D021686FF0010008612046C2
:1021C00000F034FA280601D4A80408D5300606D554
:1021D00021686FF4025008612046FFF7CEFDE80544
:1021E00008D5300606D521686FF480700861204656
:1021F000FFF7C2FD680608D5700606D521686FF0A6
:1022000040000861204600F018FAA80608D5B0067C
:1022100006D521686FF0200008612046FFF7AEFD6B
:10222000E80208D5F00206D521686FF48010086135
:102230002046FFF7F4FDA80208D5B00206D52168B4
:102240006FF4001008612046FFF7E8FD680208D52A
:10225000700206D521686FF4800008612046FFF700
:10226000DFFD28020AD5300208D521686FF400008E
:1022700008612046BDE8F041FFF722BEBDE8F081CD
:1022800030B587B0044614216846FEF76DF824681F
:10229000164D0023164902224FF09040AC420FD158
:1022A000CC6C44F00104CC64C96C01F001010591CF
:1022B000D1018DE80E000621CDE90331694610E019
:1022C0000C4DAC420FD1CC6C44F00104CC64C96C11
:1022D00001F00101059140218DE80E00CDE90332A6
:1022E0006946FEF747FE07B030BD0000002C0140F4
:1022F0000010024000040040704770B5044690F89A
:102300003C0000260D4601280BD0012084F83C003B
:102310000C2A4AD007DC82B1042A20D0082A06D130
:1023200031E0022070BD102A53D0142A63D0012658
:10233000002084F83C00304670BD206801F09AFE11
:102340002068816941F0080181612068816921F07C
:1023500004018161206881692A69114311E02068C4
:1023600001F0D6FE2068816941F400618161206836
:10237000816921F480618161206881692A6941EA6B
:1023800002218161D4E7206801F00AFF2068C16959
:1023900041F00801C1612068C16921F00401C161F7
:1023A0002068C1692A69114311E0206801F040FFEB
:1023B0002068C16941F40061C1612068C16921F4EC
:1023C0008061C1612068C1692A6941EA0221C16155
:1023D000AEE7206801F074FF2068016D41F008014C
:1023E00001652068016D21F0040101652068016D1F
:1023F0002A69114311E0206801F09AFF2068016DFD
:1024000041F4006101652068016D21F4806101657E
:102410002068016D2A6941EA0221016588E710B54B
:10242000040003D094F83D0010B107E0012010BD76
:10243000002084F83C00204600F022F8022084F8B6
:102440003D00211D206801F095FD012084F8480021
:1024500084F83E0084F83F0084F8400084F841008E
:1024600084F8420084F8430084F8440084F845006E
:1024700084F8460084F8470084F83D00002010BD31
:102480007047704730B50446022269B1042912D062
:10249000082917D00C291CD0102921D094F843000A
:1024A000012824D0012030BD94F83E000128F9D144
:1024B00084F83E201DE094F83F000128F2D184F812
:1024C0003F2016E094F840000128EBD184F840202A
:1024D0000FE094F841000128E4D184F8412008E09D
:1024E00094F842000128DDD184F8422001E084F80C
:1024F00043200122206801F09BFD194B20681949F7
:10250000194A984209D0884207D0904205D0174D09
:10251000A84202D0164DA84203D1456C45F40045AF
:102520004564206898420CD0B0F1804F09D0114B1F
:10253000984206D0104B984203D0884201D0904276
:1025400007D181680D4A1140062906D0B1F5803FB8
:1025500003D0016841F001010160002030BD00009E
:10256000002C014000340140004001400044014083
:10257000004801400004004000080040070001003E
:1025800030B504460D460068002201F051FD224B93
:1025900041F2111120688A0098420BD01F4B9842DB
:1025A00008D01F4B984205D01E4B984202D01E4BBC
:1025B000984209D1036A0B4206D1036A134203D140
:1025C000436C23F4004343642068036A0B4206D142
:1025D000016A114203D1016821F00101016001206B
:1025E0005DB1042D0CD0082D0DD00C2D0ED0102D6A
:1025F0000FD084F84300002030BD84F83E00FAE795
:1026000084F83F00F7E784F84000F4E784F84100DD
:10261000F1E784F84200EEE7002C0140003401406D
:102620000040014000440140004801400068B0F112
:10263000804F01D1FEF7D2BD7047704790F88410EB
:10264000012918D0012180F884102421C0F88810B5
:1026500001680A680B6823F001030B6022F0005147
:1026600000224266036819602021C0F8881080F8B3
:10267000842010467047022070477047704770B53D
:10268000044690F8840001281DD0012084F88400BD
:102690002420C4F8880020680568026822F001023E
:1026A00002602068826822F060620A4382602046ED
:1026B00001F09AFE206805602020C4F88800002000
:1026C00084F8840070BD022070BD70B5044690F897
:1026D000840001281DD0012084F884002420C4F83F
:1026E000880020680568026822F001020260206804
:1026F000826822F060420A438260204601F074FE44
:10270000206805602020C4F88800002084F8840038
:1027100070BD022070BD7047704770472DE9F041D1
:1027200003680446D86919689A6840F60F0528427C
:102730004FF000054FF002060AD187067ED501F062
:10274000200702F0805C57EA0C0777D0616F3AE10E
:10275000B24FDFF8CCC2174001EA0C0C57EA0C0C60
:102760006CD05FEAC07C0CD05FEAC15C09D54FF049
:10277000010CC3F820C0D4F8903043F00103C4F832
:102780009030830709D5D30707D023681E62D4F899
:10279000903043F00403C4F8903043070AD5D307C0
:1027A00008D0266804233362D4F8903043F0020343
:1027B000C4F8903003070CD501F020033B4308D048
:1027C000266808233362D4F8903043F00803C4F835
:1027D000903003050BD54B0109D526684FF40063F3
:1027E0003362D4F8903043F02003C4F89030D4F82A
:1027F0009030002B3DD0800609D501F0200002F07A
:102800008051084303D0616F09B120468847D4F84E
:10281000900021688968490602D410F0280F2AD058
:10282000204601F0C7FE2068806840061ED520685B
:10283000083050E8001F21F0400100E021E040E8AE
:102840000012002AF3D1D4F8800078B17549816371
:10285000D4F88000FEF73FFB00280AD0D4F88000AF
:10286000816B00E02046BDE8F04108472046FFF7B5
:1028700054FFBDE8F0812046FFF74FFFC4F89050A9
:10288000F7E7D4F86CC02027BCF1010F7ED15FEAD6
:10289000C06C7BD55FEAC16C78D5102018622068C7
:1028A0008068400645D5D4F8801008684068000468
:1028B000000CDED0B4F85C208242DAD9A4F85E00C5
:1028C0000868006880062CD4216851E8000F20F4C5
:1028D000807041E80002002AF6D12068083050E8F4
:1028E000001F21F0010140E80012002AF5D1206804
:1028F000083050E8001F21F0400140E80012002A93
:10290000F5D1C4F88C70E566206850E8001F21F00E
:10291000100140E80012002AF6D1D4F88000FEF73A
:10292000A5FA2667B4F85C00B4F85E10401A81B2CC
:1029300030E0B4F85C00B4F85E10401A81B2B4F82C
:102940005E00002895D0002993D0226852E8000F3D
:1029500020F4907042E80003002BF6D12F4BDB43AC
:102960002068083050E8002F1A4040E8002CBCF1E5
:10297000000FF5D1C4F88C70E5666567226852E8EF
:10298000000F20F0100042E8000300E006E0002BFA
:10299000F4D126672046FFF770FE6AE7C60209D524
:1029A000560207D54FF4801018622046BDE8F0416A
:1029B000FFF7B2BE03060AD501F0800302F400025D
:1029C000134304D0A16F00297FF44CAF51E74206B6
:1029D00011D54A060FD52046026852E8001F21F0A3
:1029E000400142E80013002BF6D1C0F888708567DB
:1029F00000F0F7F93DE7020206D54A0004D520466B
:102A0000BDE8F041FFF787BEC001C6D50029C4DA92
:102A10002046BDE8F041FFF731BE00000100001084
:102A200020010004A145000810B5040003D0D4F82B
:102A3000880010B107E0012010BD002084F8840058
:102A4000204600F027F82420C4F888002068016898
:102A500021F001010160A06A10B1204601F0E6FCFE
:102A6000204602F039F80128E6D02068416821F4B8
:102A7000904141602068816821F02A0181602068CE
:102A8000016841F0010101602046BDE8104001F0FD
:102A900031BD00002DE9F04198B00446142111A881
:102AA000FDF762FC44216846FDF75EFC464920685C
:102AB000464C0727022600254FF09048884226D131
:102AC0000120CDE900056846FEF7A8FC08B1FDF736
:102AD000EDFC206E40F480402066206E00F48040C3
:102AE0001690E06C40F00100E064E06CCDE9126506
:102AF00000F0010016904FF4C060CDE9145711901A
:102B000011A94046FEF736FA18B0BDE8F081304909
:102B1000884228D1684600960295FEF77FFC08B1EE
:102B2000FDF7C4FCA06D40F40030A065A06D00F47A
:102B300000301690E06C40F00100E064E06CCDE9FC
:102B4000126500F0010016900C20CDE91457119089
:102B500011A94046FEF70EFA002205212620FEF7B5
:102B6000C5FB26202CE01B498842CDD104200090D3
:102B700003956846FEF752FC08B1FDF797FCA06D7F
:102B800040F48020A065A06D00F480201690E06CD9
:102B900040F00200E064E06CCDE9126500F0020054
:102BA00016904FF44060CDE91457119011A90A48CE
:102BB000FEF7E0F9002205212720FEF797FB2720EA
:102BC000FEF786FBA0E7000000380140001002403D
:102BD0000044004000480040000400482DE9F84F40
:102BE0000446D0F88C009B4616460D46202802D09D
:102BF0000220BDE8F88FC5B1BEB10027C4F89070BF
:102C00002220C4F88C00E7662034FEF7E1FAA6879C
:102C10008246E68754F8180C4FF48053FF21203C7D
:102C2000984207D1226912B119E00120E1E740F290
:102C3000FF1114E07F2280B1B0F1805F12D0A4F8C0
:102C4000607000BFB4F860704FF02008984201D166
:102C5000206970B12E4600250CE0266936B9A4F82B
:102C60006010EFE7216909B13F21F8E7A4F860207F
:102C7000E8E7002607F0FF09B4F85E00F0B153461C
:102C8000002220212046CDF800B002F0E7F818B16C
:102C9000C4F88C800320ACE72068406A56B100EA93
:102CA000090006F8010B00BFB4F85E00401EA4F84E
:102CB0005E00E1E7384025F8020BF5E7C4F88C80A8
:102CC000002096E730B4D0F88C30202B02D00220C0
:102CD00030BC7047A9B1A2B10023C3660A4C036897
:102CE000A3420BD05B681B0208D5046854E8003F80
:102CF00043F0806344E80035002DF6D130BC02F08B
:102D000025B80120E4E7000000800040064810B527
:102D10000021406903F05CFABDE810400422034939
:102D20000348FFF7CFBF000000000020440500204B
:102D3000840700202DE9F8430446D0F8880098461F
:102D400016460D46202802D00220BDE8F883A5B122
:102D50009EB10020C4F890002120C4F888001834E7
:102D6000FEF736FAA6878146E68754F8100C20272E
:102D7000183CB0F5805F02D003E00120E5E7206950
:102D800010B12E46002510E000260EE080212046DE
:102D900002F064F8C0B9DEB116F8010B2168886250
:102DA000B4F85600401EA4F85600B4F856004B463E
:102DB0004FF00002CDF800800028E7D14FF040012D
:102DC000204602F04BF840B1C4F888700320BCE7FD
:102DD00035F8020BC0F30800E0E7C4F88870002063
:102DE000B3E77047FEE7000070B501220E4D5402B4
:102DF00021462846FEF7E7F9012216023146284609
:102E0000FEF7E1F900F048F8002221462846FEF7D7
:102E1000DAF900F041F8002231462846FEF7D3F9EE
:102E2000BDE8704000F038B80004004870B50B4DA4
:102E30004FF40074002221462846FEF7C4F901220F
:102E400011022846FEF7BFF900F026F82146284671
:102E5000BDE870400122FEF7B6B90000000400484A
:102E600070B50C4C012251022046FEF7ACF900F07F
:102E700013F80122150229462046FEF7A4F900F0B6
:102E80000BF8002229462046FEF79DF9BDE8704068
:102E900000F002B8000400480320401EC0B2FCD27B
:102EA000704700EB8100006E00F0F84070478068CA
:102EB000C0F3C00070478068C0F38000704780682E
:102EC000C0F380007047C06810F4406F01D000204C
:102ED000704701207047042303EAD15310B518440A
:102EE0004369C1F3045107248C40A3438A40134330
:102EF000436110BD00EB8100016E21F000411143E0
:102F00000166704730B58BB00024089409942021E5
:102F100068460A94FDF728FA1C484FF0A0410425A2
:102F200001604FF40031C0E90114C4600461C0E9DC
:102F30000545047744770121016280F82440C4628A
:102F4000046380F83840C46380F84040FDF732FDE8
:102F500008B1FDF7ABFA08A90C480894FDF7A8FAE8
:102F600008B1FDF7A3FA0A4800900620CDE9010454
:102F70007F200594CDE9030569460448FDF704FB6D
:102F8000002801D0FDF792FA0BB030BD800500207B
:102F90000200300430B589B020216846FDF7E4F91D
:102FA00019481849002401604902C0E90114C460AD
:102FB00004250461C0E905450477447701210162D5
:102FC00080F82440C462046380F83840C46380F809
:102FD0004040FDF7EFFC08B1FDF768FA0B480090A0
:102FE0000620CDE901047F200594CDE9030569465B
:102FF0000548FDF7C9FA002801D0FDF757FA09B0D6
:1030000030BD000000010050EC0500200400600805
:1030100010B51C4A0221102002F080FA1A4C194AFD
:103020000021A062FC3A194802F0A4FA154AE060B7
:10303000D83A0021164802F09DFA124A2061B43AAB
:103040000021144802F096FA0E4A6061903A00217D
:10305000114802F08FFA0B4AA0616C3A00210F4828
:1030600002F088FA074AE061483A00210C4802F071
:1030700081FA044A2062243A00210A4802F07AFACE
:10308000606210BD848E0008000000208D380008AA
:10309000C1380008053900089D3A0008613B000866
:1030A000793C0008DD3D00082DE9F04186B014218F
:1030B0006846FDF759F92748C16C41F00401C16425
:1030C000C16C01F004010591C16C41F02001C164A3
:1030D000C16C01F020010591C16C41F00101C16496
:1030E000C16C01F001010591C16C41F00201C164A4
:1030F000C06C194F00F002004FF4005405900022FC
:1031000021463846FEF75FF8DFF850804FF44076EE
:10311000002231464046FEF756F80125CDE900452C
:1031200000240294694638460394FDF723FF3120BA
:103130008DE8310069464046FDF71CFF11200096DE
:10314000CDE90104694640460394FDF713FF06B03C
:10315000BDE8F0810010024000080048000400486B
:1031600010B59CB0002419941A94179418941494D0
:1031700015941C210DA81694FDF7F6F83421684625
:10318000FDF7F2F82C482B4901604721C0E90114F2
:1031900042F20F71C0E9031444618461FEF791FEAD
:1031A00008B1FDF783F94FF48050179017A9224812
:1031B000FEF714FF08B1FDF779F91F48FFF72FF963
:1031C00008B1FDF773F91494159414A91A481694CC
:1031D000FEF728FE08B1FDF769F96020CDE90D047E
:1031E0000F9410941194129400220DA91248139474
:1031F000FFF783F808B1FDF759F900944FF4005038
:10320000CDE9044003940003CDE908400194029401
:10321000069407940A940B94694607480C94FEF7A9
:10322000AFFD08B1FDF742F90348FFF729F81CB0DC
:1032300010BD0000002C01405806002010B58EB0D3
:1032400000240794089409940A940B940C941C216C
:1032500068460D94FDF788F81E481D490160472116
:10326000C0E901144FF6FF71C0E903148461FEF751
:1032700028FE08B1FDF71AF94FF48050079007A90E
:103280001448FEF7ABFE08B1FDF710F91148FFF73F
:10329000C6F808B1FDF70AF90B940BA90D480D9477
:1032A000FEF7C0FD08B1FDF701F96020CDE900048B
:1032B00002940022694607480494FFF71EF808B1FB
:1032C000FDF7F4F80348FEF7DBFF0EB010BD000079
:1032D00000040040A4060020184810B516490160FB
:1032E0004FF4E1314160002181600C22C160C0E9EE
:1032F00004128161C161016241628162FFF794FB46
:1033000008B1FDF7D3F800210C48FFF7DEF908B14A
:10331000FDF7CCF800210948FFF7B1F908B1FDF736
:10332000C5F80648FFF78AF9002803D0BDE8104029
:10333000FDF7BCB810BD000000380140F0060020C9
:10334000184810B5164901604FF4E1314160002181
:1033500081600C22C160C0E904128161C161016217
:1033600041628162FFF760FB08B1FDF79FF8002121
:103370000C48FFF7AAF908B1FDF798F800210948B1
:10338000FFF77DF908B1FDF791F80648FFF756F908
:10339000002803D0BDE81040FDF788B810BD00003C
:1033A0000044004084070020184810B51649016009
:1033B0004FF4E1314160002181600C22C160C0E91D
:1033C00004128161C161016241628162FFF72CFBDD
:1033D00008B1FDF76BF800210C48FFF776F908B14A
:1033E000FDF764F800210948FFF749F908B1FDF736
:1033F0005DF80648FFF722F9002803D0BDE8104029
:10340000FDF754B810BD0000004800401808002027
:10341000FEE7FEE730B40021084B0A465FF00000EB
:1034200003EBC004401CC0B262548028F8D3491C8E
:10343000C9B20829F2D330BC00F0B6B8C4000020ED
:1034400030B5CC0801F0070301259D40EBB2064DD5
:1034500005EBC005C808285C0AB1184302E063EA1E
:103460000000C043285530BDC400002030B587B0EF
:1034700014216846FCF778FF4948C16C41F002010D
:10348000C164C06C474D00F00200059001224FF46A
:1034900040712846FDF797FE4FF4807000900120A0
:1034A0000024CDE90104694628460394FDF762FD36
:1034B0004FF4007000901120CDE9010469462846C0
:1034C0000394FDF757FD0021AE2000F099F900218B
:1034D000084600F095F90021102000F091F9002134
:1034E000402000F08DF90021812000F089F90021B1
:1034F000CF2000F085F90021A12000F081F9002102
:10350000C82000F07DF90021A62000F079F9002103
:10351000A82000F075F900213F2000F071F900218A
:10352000D32000F06DF90021084600F069F9002170
:10353000D52000F065F90021802000F061F900211C
:10354000D92000F05DF90021F12000F059F90021A7
:10355000DA2000F055F90021122000F051F9002185
:10356000DB2000F04DF90021302000F049F9002166
:10357000202000F045F90021022000F041F900214F
:103580008D2000F03DF90021142000F039F9FFF7FB
:1035900041FF0021AF2000F033F907B030BD00003B
:1035A000001002400004004870B5184E002400BF0F
:1035B00004F1B000C0B2002100F022F90021084659
:1035C00000F01EF90021102000F01AF9FFF70CFCA2
:1035D000782000F031F9FFF743FC402000F02CF98F
:1035E000FFF73EFC5FF0000506EBC500005D00F054
:1035F00023F9FFF735FC6D1CEDB2802DF4D3FFF7F6
:1036000015FC641CE4B2082CD2D370BDC4000020A9
:103610002DE9FC4F1C460E4682468B460190082B36
:103620000ED0600700D0012000EBD400610810FB31
:1036300001F0C0B28146203AD0B2009000204AE0AA
:103640000620F7E7082C12D00C2C17D0102C1AD01B
:10365000182C43D10098234900EBC00001EB8001F6
:10366000002711F80850E80712D00B9A13E00098D1
:103670001D4900EB400001EB4001F1E700981B49B8
:1036800000EB4000EAE71A49009801EB0011E7E778
:103690000B9828B3002231465046FFF7D1FE761C26
:1036A0007F1C6D08FFB2F6B2082FDCD30AF10100CF
:1036B00000F0FF0A082C0AD00199AAEB0100B0EB38
:1036C000540F04D10BF108008A4600F0FF0B08F1FB
:1036D00001005E46C0B280464845B3D3BDE8FC8FCA
:1036E0000122D8E7447B0008B86E0008E0700008AB
:1036F000547500082DE9FF4F81B08146009098462F
:103700000E468B46580701D0012100E0002101EB55
:10371000D80111FB08FA002449E000BFB8F1100FEE
:1037200012D0B8F1180F14D0B8F1200F19D0B8F199
:10373000400F3ED12149039801EB40200027055D51
:10374000E80714D00E9A15E01D49039801EB4010CC
:10375000F4E70398194900EBC000C83901EBC00039
:10376000ECE716490398803901EBC010E6E70E98A4
:1037700010B3002231464846FFF762FE761C7F1CDC
:103780006D08FFB2F6B2082FDAD309F101000099F3
:1037900000F0FF09A9EB0101414505D10BF108003B
:1037A000DDF8009000F0FF0B641C5E46A4B25445A7
:1037B000B4D305B0BDE8F08F0122DBE7888B0008A9
:1037C000A08800082DE9F8411E46154688460446A3
:1037D000079F0BE03346414620460097FFF718FF4E
:1037E000082E0AD004EB5600C4B26D1C2A78A2F150
:1037F00020005E28EED9BDE8F881A41DE4B2F4E70C
:1038000070B50C460546FFF7EFFA782000F014F883
:10381000FFF726FB0CB1402000E0002000F00CF880
:10382000FFF71EFB284600F007F8FFF719FBBDE87D
:103830007040FFF7FBBA00002DE9F041124F05463A
:1038400000244FF400784FF48076280601D5012239
:1038500000E0002241463846FDF7B5FCFFF71CFBAF
:10386000012231463846FDF7AEFCFFF715FB00227A
:1038700031463846FDF7A7FC6806641C050EE4B225
:10388000082CE2D3BDE8F0810004004808A001F054
:103890003DFB14210848FCF767FD04220649074850
:1038A000FFF710FA4FF47A74204601F0CAFDFBE7E7
:1038B00073746172740D0A004405002084070020AF
:1038C00086B00020ADF81400044614216846FCF7C9
:1038D0004BFD0A4D4FF0FF364FF47A773346002206
:1038E00005A9A86A01F0E8FD3B462246694604485E
:1038F000FFF720FA012001F0A4FDEFE7000000200F
:10390000840700204FF0FF39494CDFF828814A4EE8
:1039100000254FF4FA7A40F2DC574946012002F0C4
:10392000BBFA464946A001F0F1FA48A14348FCF72A
:1039300026FD78B147A14148FCF721FDA0B147A180
:103940003E48FCF71CFDB0B146A13C48FCF717FD12
:10395000B0B11DE00120207000214448FEF792FD27
:10396000FF206080217810E000214048FEF708FE2B
:103970002946658008E02078052809D2401C02E02D
:10398000207828B1401EC1B2217039A001F0BEFAE2
:103990002078062825D2DFE800F003090F1B1E213E
:1039A00000213248FEF7ECFD658008E000212F4839
:1039B000FEF768FDC72001E040F28F10608061884B
:1039C000C8F800102FA11D48FCF7D9FC58B116E02B
:1039D00040F25720F2E740F21F30EFE740F2E730C5
:1039E000ECE72570E0E731684FF496604863504695
:1039F00001F027FD3068476324A001F087FA24A175
:103A00000E48FCF7BCFC58B923A001F07FFA3168DE
:103A10004FF4E1604863504601F013FD306847639E
:103A200014210648FCF7A0FC012001F00AFD74E710
:103A300000000020342C0140A40600204405002092
:103A40006461746172783D25730D0A004F50454ED4
:103A500000000000434C4F53000000006869676895
:103A600000000000646F776E000000005806002020
:103A7000B5B1C7B0B5B5CEBBCEAAA3BA2564B5B5AE
:103A80000D0A00006C656674000000003100000043
:103A90007269676800000000320000000025264EB1
:103AA000264C2F4601213046FDF788FBC0B9322055
:103AB000FDF74EFA01213046FDF780FB50B9207822
:103AC0000125401CC0B22070052800D927700A20AB
:103AD000FDF73EFA01213046FDF770FB0028F9D0D2
:103AE000012DDFD12178062914D2DFE801F0030986
:103AF000181B1E2100211248FEF742FD678005E0D9
:103B000000210F48FEF7BEFCC720608021780DA081
:103B100001F0FCF91149608800250860C2E740F215
:103B20008F1007E040F2572004E040F21F3001E020
:103B300040F2E7306080EAE700040048000000201F
:103B4000580600200D0AB5B1C7B0B5B5CEBBCEAA98
:103B5000A3BA2564B5B50D0A00000000342C01405D
:103B600008B5354C4FF0FF36002533460122694633
:103B70003248FFF733F80028F7D19DF8001030A045
:103B800001F0C4F99DF8000001280AD1207000213D
:103B90003148FEF777FCFF20608021782FA001F0EC
:103BA000B5F99DF8000020B102280AD003280DD0F5
:103BB00014E0257000212848FEF7E2FC658021789A
:103BC00009E02078052809D2401C02E0207828B1BD
:103BD000401EC1B2217021A001F098F9207806287A
:103BE00027D2DFE800F003090F1D202300211A4827
:103BF000FEF7C6FC658008E000211748FEF742FC8E
:103C0000C72001E040F28F10608019496088086089
:103C100014211848FCF7A8FB012001F012FCA4E7CE
:103C200040F25720F0E740F21F30EDE740F2E73076
:103C3000EAE72570DEE700000000002018080020F9
:103C4000BDD3CAD5B5BDB5C4CAFDBEDDA3BA3078F3
:103C5000253032580D0A000058060020B5B1C7B013
:103C6000B5B5CEBBCEAAA3BA2564B5B50D0A000082
:103C7000342C01404405002086B0FFF7F7FB504D7F
:103C800001246420FDF764F9002110230422084672
:103C90000094FFF72FFD1023052200211846009401
:103CA000FFF728FD10230622002120200094FFF7B3
:103CB00021FD10230722002130200094FFF71AFD78
:103CC00010230822002140200094FFF713FD102349
:103CD0000922002150200094FFF70CFD10230A2236
:103CE000002160200094FFF705FD10230B221946E8
:103CF00000200094FFF7FEFC10230C221946184602
:103D00000094FFF7F7FC10230D22194620200094A1
:103D1000FFF7F0FC10230E22194630200094FFF725
:103D2000E9FC10230F22194640200094FFF7E2FC23
:103D300010231A46194650200094FFF7DBFC10238D
:103D40000D22194670200094FFF7D4FC2A781DA19B
:103D500001A801F0EBF8102301AA19466020009495
:103D6000FFF730FD102318A2202100200094FFF758
:103D700029FD10231A46202130200094FFF7BAFCB9
:103D80001023134A202140200094FFF71BFD10232D
:103D900010A2302100200094FFF714FD10233021E1
:103DA0001A4608460094FFF7A5FC094A102314326E
:103DB000302140200094FFF705FDFFF7F5FB60E799
:103DC00000000020256400006C656674000000009F
:103DD00058050020726967687400000000213748A8
:103DE000FEF750FB364CDFF8DC90344D4FF0FF38D7
:103DF00040F2DC563448FCF7BFFF474641463248A4
:103E0000FCF73CFF3048FCF7D1FDA0603220FDF705
:103E10009FF82E48FCF7B0FF39462C48FCF72EFFE0
:103E20002A48FCF7C3FD60603220FDF791F8626814
:103E300027A102F57A726260A06800F57A70A0602E
:103E4000244801F073F8234821A11430A26801F03E
:103E50006DF8D4E9011001F59672904202D94FF441
:103E6000AF6005E000F59670814204D94FF4C86058
:103E70002968486301E02868466310214F46484698
:103E8000FDF79CF940B929684FF4966048636420B7
:103E900001F0D7FA2868466320213846FDF78EF9ED
:103EA00040B929684FF4E1604863642001F0C9FA21
:103EB00028684663012001F0C4FA9BE7A4060020AD
:103EC0000000002000040048EC05002080050020D0
:103ED000256C75005805002010B54FF0E0200069F2
:103EE00002F034FE012803D0BDE8104002F0F4BA1D
:103EF00010BD10B594B038216846FCF735FA14218E
:103F00000EA8FCF731FA4FF40070FDF721FA0121F9
:103F10000804CDE900100324CDE908410220122154
:103F2000CDE90A1007900C900D906846FDF722FD30
:103F300008B172B6FEE70F20CDE90E040020109004
:103F40001190129002210EA8FDF7ACFB002801D0C1
:103F500072B6FEE714B010BD0248016841F470016A
:103F60000160704788ED00E00148FEF7B8B8000036
:103F7000AC0800202DE9F0430268264B264D274E61
:103F8000274C4FF08049984207D0484505D0A842B9
:103F900003D0B04201D0A04203D122F070074A689A
:103FA0003A43204FDFF880C0DFF8808098420DD080
:103FB00048450BD0A84209D0B04207D0A04205D056
:103FC000B84203D0604501D0404503D122F440758A
:103FD000CA682A434D6922F080022A4302608A6837
:103FE000C2620A688262984207D0A04205D0B842F5
:103FF00003D0604501D0404501D109690163012129
:1040000041610169C90703D0016921F00101016122
:10401000BDE8F083002C014000040040000800408F
:10402000003401400040014000440140004801408C
:1040300010B501F01F030121046A99408C4304620A
:10404000016A9A401143016210BD10B5846842EACA
:10405000032224F47F440A432243826010BD0000FF
:104060008268034B1A400A4342F00701816070479F
:104070008FFFCFFF2DE9F043056A026A22F00102AB
:104080000262436882691C4C25F0020522400C68DC
:1040900022F0030214438A68194E2A43174D194F20
:1040A000DFF864C0DFF86490A84207D0B04205D0C2
:1040B000B84203D0604501D0484506D122F0080837
:1040C000CA6842EA080222F00402A84207D0B042BD
:1040D00005D0B84203D0604501D0484505D14D69AF
:1040E00023F440731D438B692B434360846149680B
:1040F00041630262BDE8F0838FFFFEFF002C0140A8
:1041000000340140004001400044014000480140AB
:10411000F0B5056A026A22F0100202624268836901
:10412000194C1B4E23400C6823F4407343EA0424CB
:1041300025F020038D6843EA0513144DA84201D0F1
:10414000B04206D1CF6823F0800343EA071323F07F
:104150004003A8420AD0B04208D00E4DA84205D074
:104160000D4DA84202D00D4DA84207D14D6922F451
:10417000406242EA85028D6942EA850242608461BA
:10418000496881630362F0BDFF8FFFFE002C014090
:10419000003401400040014000440140004801401B
:1041A000F0B5056A026A22F4807202624368C2694D
:1041B000194C1B4E22400C6822F00302144325F4D4
:1041C00000728D6842EA0522144DA84201D0B04227
:1041D00006D1CF6822F4006242EA072222F480620C
:1041E000A8420AD0B04208D00E4DA84205D00E4DCC
:1041F000A84202D00D4DA84207D14D6923F4405387
:1042000043EA05138D6943EA05134360C4614968B5
:10421000C1630262F0BD00008FFFFEFF002C014071
:10422000003401400040014000440140004801408A
:10423000F0B5056A026A22F4805202624268C369DC
:10424000194C1B4E23400C6823F4407343EA0424AA
:1042500025F400538D6843EA0533144DA84201D07C
:10426000B04206D1CF6823F4004343EA073323F476
:104270008043A8420AD0B04208D00E4DA84205D0D3
:104280000D4DA84202D00D4DA84207D14D6922F430
:10429000404242EA85128D6942EA85124260C46159
:1042A000496801640362F0BDFF8FFFFE002C0140EE
:1042B00000340140004001400044014000480140FA
:1042C00030B5056A026A22F4803202624268036DE8
:1042D000114C23400C681C4325F400330D8943EA3C
:1042E00005430E4DA8420BD00D4DA84208D00D4DF0
:1042F000A84205D00C4DA84202D00C4DA84204D1D2
:104300004D6922F4803242EA052242600465496820
:104310008164036230BD00008FFFFEFF002C01406E
:104320000034014000400140004401400048014089
:1043300030B5046A026A22F4801202624268036D98
:10434000114D24F400142B400D6843EA05230D8918
:1043500044EA05540D4DA8420BD00D4DA84208D09B
:104360000C4DA84205D00C4DA84202D00B4DA842DE
:1043700004D14D6922F4802242EA8522426003651D
:104380004968C164046230BDFF8FFFFE002C01400C
:104390000034014000400140004401400048014019
:1043A00010B5036A046A24F001040462846924F0ED
:1043B000F00444EA021423F00A020A438461026210
:1043C00010BD10B5036A046A24F010040462846905
:1043D00023F0A00324F4704444EA023243EA0111BA
:1043E0008261016210BD000030B5416EB9B1026852
:1043F00091689268C1F342610B4B520F9C5CE500DF
:1044000003F10804A25CB5FBF2F2A0F86A205A5C42
:10441000615CD200B2FBF1F1A0F8681030BD01215F
:10442000A0F86A10F8E70000B48E000890F8281091
:10443000090706D501684A68836B22F400421A43D3
:104440004A6090F82810C90706D001684A68C36A14
:1044500022F400321A434A6090F82810890706D5E2
:1044600001684A68036B22F480321A434A6090F86C
:104470002810490706D501684A68436B22F4802258
:104480001A434A6090F82810C90606D501688A6860
:10449000C36B22F480521A438A6090F82810890670
:1044A00006D501688A68036C22F400521A438A60B8
:1044B00090F82810490611D501684A68436C22F427
:1044C00080121A434A60416CB1F5801F06D1016821
:1044D0004A68836C22F4C0021A434A6090F828109C
:1044E000090606D501684A68C06C22F4002202431E
:1044F0004A6070472DE9F84300260446C0F89060F2
:10450000FCF766FE8046206800684FF02005000733
:104510006FF07E4713D543460022290420460097BA
:1045200000F09CFC58B1216851E8000F20F0800099
:1045300041E80002002AF6D1C4F8885021E0206842
:104540000068400722D5434600224FF480012046F0
:10455000009700F083FCC8B1216851E8000F20F4F7
:10456000907041E80002002AF6D12068083050E837
:10457000001F21F0010140E80012002AF5D1C4F823
:104580008C5084F884600320BDE8F883C4F8885018
:10459000C4F88C5044F86C6F666026760020F3E710
:1045A00010B5806A0021A0F85E10A0F85610FEF742
:1045B000B4F810BD10B5026852E8001F21F49071E4
:1045C00042E80013002BF6D10E4B0268083252E885
:1045D000001F194042E80014002CF6D1C16E0129D9
:1045E00008D1016851E8002F22F0100241E80023B1
:1045F000002BF6D12021C0F88C100021C166416744
:1046000010BD0000FEFFFFEF10B5B0F86020D0F83D
:104610008C300168222B04D0886940F00800886142
:1046200010BD496A836D11401980816D891C8165B7
:10463000B0F85E10491EA0F85E10B0F85E100029B8
:10464000EED1026852E8001F21F4907142E8001395
:10465000002BF6D10168083151E8002F22F0010249
:1046600041E80023002BF5D12021C0F88C10002157
:1046700041670167154B02689A420BD052681202DB
:1046800008D5036853E8002F22F0806243E8002435
:10469000002CF6D1C26E012A02D0FEF737FB10BD06
:1046A000C166026852E8001F21F0100142E80013C1
:1046B000002BF6D10168CA69D243D20601D4102278
:1046C0000A62B0F85C10FDF7D8FF10BD0080004012
:1046D0002DE9F0470446B0F860600068C569D0F87D
:1046E00000A0D0F80880D4F88C10222905D0816968
:1046F00041F008018161BDE8F087B4F868704FF0BF
:10470000000975E02068406AA16D30400880A06D06
:10471000801CA065B4F85E00401EA4F85E0020680E
:10472000C569690730D0E9070AD05FEACA5107D5E1
:1047300001210162D4F8900040F00100C4F890001B
:10474000A8070BD55FEAC87008D02168022008626C
:10475000D4F8900040F00400C4F8900068070BD52E
:104760005FEAC87008D0216804200862D4F890007D
:1047700040F00200C4F89000D4F8900020B1204628
:10478000FDF7CBFFC4F89090B4F85E0080BB2168C1
:1047900051E8000F20F4807041E80002002AF6D1B1
:1047A000304A2068083050E8001F114040E80013EC
:1047B000002BF6D12020C4F88C00C4F87490494630
:1047C000C4F87090284A206890420BD040680002DC
:1047D00008D5226852E8000F20F0806342E80030DC
:1047E0000028F6D1E06E012825D02046FEF78EFA8B
:1047F0000FB1A80686D4B4F85E0000283FF47BAF62
:10480000B4F8681081427FF676AF2068083050E82F
:10481000001F21F0805140E80012002AF5D1134812
:104820006067216851E8000F40F0200041E8000275
:10483000002AF6D15FE7E166216851E8000F20F019
:10484000100041E80002002AF6D12068C169C9437E
:10485000C90601D410210162B4F85C102046FDF7AE
:104860000CFFC5E7FEFFFFEF00800040094600088F
:1048700010B5B0F86020D0F88C300168222B04D03D
:10488000886940F00800886110BD496A1140826D56
:104890001170816D491C8165B0F85E10491EA0F849
:1048A0005E10B0F85E100029EED1016851E8002FCB
:1048B00022F4907241E80023002BF6D10168083100
:1048C00051E8002F22F0010241E80023002BF5D12E
:1048D0002021C0F88C10002141670167154B026848
:1048E0009A420BD05268120208D5036853E8002F91
:1048F00022F0806243E80024002CF6D1C26E012A27
:1049000002D0FEF703FA10BDC166026852E8001F2C
:1049100021F0100142E80013002BF6D10168CA69AA
:10492000D243D20601D410220A62B0F85C10FDF71F
:10493000A4FE10BD008000402DE9F0470446B0F809
:1049400060600068C569D0F800A0D0F80880D4F88D
:104950008C10222905D0816941F008018161BDE8F0
:10496000F087B4F868704FF0000975E02068406A7D
:10497000A16D30400870A06D401CA065B4F85E00C9
:10498000401EA4F85E002068C569690730D0E907B9
:104990000AD05FEACA5107D501210162D4F890001C
:1049A00040F00100C4F89000A8070BD55FEAC8707A
:1049B00008D0216802200862D4F8900040F004007A
:1049C000C4F8900068070BD55FEAC87008D021686A
:1049D00004200862D4F8900040F00200C4F890006F
:1049E000D4F8900020B12046FDF797FEC4F89090CF
:1049F000B4F85E0080BB216851E8000F20F480709D
:104A000041E80002002AF6D1304A2068083050E818
:104A1000001F114040E80013002BF6D12020C4F8FD
:104A20008C00C4F874904A46C4F8709028492068F5
:104A300088420BD04068000208D5216851E8000F79
:104A400020F0806041E80003002BF6D1E06E0128E1
:104A500025D02046FEF75AF90FB1A80686D4B4F83F
:104A60005E0000283FF47BAFB4F8681081427FF607
:104A700076AF2068083050E8001F21F0805140E8F0
:104A80000012002AF5D113486067206850E8001F23
:104A900041F0200140E80012002AF6D15FE7E2660B
:104AA000216851E8000F20F0100041E80002002AC0
:104AB000F6D12068C169C943C90601D41021016239
:104AC000B4F85C102046FDF7D8FDC5E7FEFFFFEF08
:104AD00000800040714800082DE9F041044601685B
:104AE00080682269E3691043626900251A43104314
:104AF000DFF82CC20A688B4B1A4002430A60206818
:104B00004168E26821F44051114341602168A06985
:104B1000614501D0226A10438A68834B1A400243E0
:104B20008A602068C16A626A21F00F011143C16284
:104B30007E4923687E488B420DD1D0F8880010F062
:104B4000030006D0012855D0022842D003283FD1C7
:104B500052E001203DE077498B420BD1D0F888002C
:104B600010F00C0035D0042833D0082840D00C2891
:104B70002ED141E070498B420BD1D0F8880010F063
:104B8000300026D0102835D0202831D030281FD131
:104B900032E06A498B420BD1D0F8880010F0C00097
:104BA00017D0402826D0802822D0C02810D123E05A
:104BB00063450DD1D0F8880010F4406009D0B0F5FD
:104BC000806F17D0B0F5006F12D0B0F5406F13D0E2
:104BD00010205B495B4F00264FF4004263453BD1F8
:104BE00060B1022813D004280BD0082872D10DE040
:104BF0000220EEE70420ECE70820EAE7FCF760FE7D
:104C000001E0FCF781FE010001D17CE01146606A01
:104C100037F810206768B1FBF2F007EB47038342D7
:104C200070D8B0EB073F6DD8002308461946FBF754
:104C300051FB090241EA1061020278081018714123
:104C40003A460023FBF746FB3F4AA0F540719142EC
:104C500058D82168C86056E0E3694FF6EF78934270
:104C60002CD109284ED2DFE800F00508114D0D4D7A
:104C70004D4D1000FCF724FE01E0FCF733FE01006F
:104C800004D140E0FCF740FEF9E71146606A37F8CE
:104C90001000B1FBF0F04100606801EB5001B1FB86
:104CA000F0F0A0F1100141452CD84FF6F071014011
:104CB000C0F3420001432068C16024E0092821D2EA
:104CC000DFE800F0050912200E2020201100FCF77B
:104CD000F7FD02E016E0FCF705FE010004D112E04A
:104CE000FCF712FEF9E71146606A37F81000B1FBD5
:104CF000F0F1606801EB5001B1FBF0F0A0F11001A0
:104D000041450AD901250120A4F86A0024F8680F5A
:104D10002846E6602661BDE8F08180B299E7000090
:104D200000800040F369FFCFFFF4FF11003801401D
:104D3000001002400044004000480040004C004089
:104D40000024F4009C8E0008FFFC0F0070B5816504
:104D5000A0F85C20A0F85E200023436781684FF430
:104D60008056FF24B14204D10169F9B940F2FF1124
:104D700022E07F25C1B1B1F1805F1AD0A0F8603088
:104D8000C0F890302221C0F88C100168083151E839
:104D9000003F43F0010341E80034002CF5D1416E9F
:104DA000B1F1005F0ED031E0016941B9A0F8604077
:104DB000E6E7016919B13F21A0F86010E0E7A0F82B
:104DC0006050DDE7B0F8681091421FD88168B142A9
:104DD00001D10169B9B11D494167016941B1026859
:104DE00052E8001F41F4807142E80013002BF6D115
:104DF0000168083151E8002F42F0805241E8002359
:104E0000002BF5D120E012494167F1E78168B142FA
:104E100001D1016969B10F494167016959B102685E
:104E200052E8001F41F4907142E80013002BF6D1C4
:104E30000AE009494167026852E8001F41F0200179
:104E400042E80013002BF6D1002070BD394900085C
:104E5000D146000871480008094600082DE9F047CE
:104E6000994617460D4604464FF00008089E33E069
:104E7000701C31D0FCF7ACF9A0EB0900B04218D897
:104E8000BEB120680168490726D5802D24D0402D69
:104E900022D0C169C94309070DD4082505622046FF
:104EA000FFF788FBC4F8905084F884800120BDE8A7
:104EB000F0870320FBE7C069C04300050CD42168DC
:104EC0004FF4006008622046FFF774FB2020C4F80E
:104ED000900084F88480ECE72068C06935EA00001F
:104EE00004D00020B842C3D00020E0E70120F9E759
:104EF0000148FDF713BC0000840700200148FDF7BE
:104F00000DBC000018080020FEE700000FB4054BA0
:104F100010B503A9044A029800F03CF810BC5DF8F3
:104F200014FB0000F5530008C00000200FB4084B2C
:104F300010B504A902AA039800F02CF8044602A9AF
:104F4000002000F052FA204610BC5DF814FB00006F
:104F5000EB5300080907090E002804DB00F1E020EC
:104F600080F80014704700F00F0000F1E02080F896
:104F7000141D704702E008C8121F08C1002AFAD1A8
:104F800070477047002001E001C1121F002AFBD1C9
:104F9000704700002DE9FF4F8DB00F4605460026F3
:104FA00006E025280BD0DDE90F1290476D1C761C1A
:104FB00028780028F5D111B03046BDE8F08F0024E4
:104FC000A246A1460122E94900E0044315F8013F49
:104FD000203B02FA03F00842F7D128782A2810D0A3
:104FE0006FF02F022878A0F13001092914D80AEBBC
:104FF0008A0102EB410144F0020400EB010A6D1C3E
:10500000F0E701CF5FEA000A03D544F40054CAF187
:10501000000A44F002046D1C28782E2817D115F8D8
:10502000010F44F004042A280ED06FF02F022878D4
:10503000A0F1300109290AD809EB890102EB4101ED
:1050400000EB01096D1CF2E757F8049B6D1C2878F2
:105050006C280FD006DC4C2817D068280DD06A28A1
:1050600014D104E0742810D07A280FD10DE044F454
:1050700000140AE044F4801401E044F44014697818
:10508000814202D104F580146D1C6D1C28786E28B5
:105090001ED00CDC632830D004DC00288BD05828CC
:1050A00011D19FE0642867D069280CD164E073288F
:1050B0002DD004DC6F2872D0702804D194E07528BC
:1050C0006ED078286DD0DDE90F129047761C4BE149
:1050D000C4F30250022806D0032809D0042801CFC7
:1050E00009D0066040E101CFF117C0E900613BE162
:1050F00001CF068038E1067036E117F8040B8DF811
:10510000000000208DF80100EB46012003E057F875
:1051100004BB4FF0FF3061074FF0000102D40DE0F7
:1051200008F10101884649450FDA8045F8DB1BF894
:1051300008100029F4D108E008F1010188468142F5
:10514000FADB1BF808100029F6D1DDE90F23AAEBE2
:1051500008008146214600F031F9304400EB080692
:1051600004E0DDE90F121BF8010B9047B8F10108CC
:10517000F7D221464846F2E00A21C4F302524FF02A
:10518000000B0891022A04D001CFC117032A09D0CD
:105190000AE0FF1D27F00707F7E8020108E02CE00E
:1051A0001EE01FE000B2C117042A01D140B2C117AE
:1051B000021E71F1000206DA0023D0EB030063EB5C
:1051C00001012D2202E0220504D52B228DF8242096
:1051D000012203E0E20701D02022F7E7904653E0E6
:1051E0000A210BE0102109E010214FF0000B44F0E0
:1051F00004044FF00809089103E008214FF0000B68
:105200000891C4F30252022A04D001CF0021032ADC
:1052100006D006E0FF1D27F00707F7E8020103E0CC
:1052200080B2042A00D1C0B24FF0000822072BD56B
:105230002A78702A07D0DDF820C08CF0100C5CEAC8
:105240000B0C05D00EE040228DF82420012208E04E
:1052500050EA010306D030238DF824308DF8252044
:1052600002229046089B83F0080353EA0B030BD1FC
:1052700050EA010201D1620706D530228DF82420C0
:105280004FF00108A9F101092A78582A04D038A260
:105290000B9208AA0A920BE03AA2F9E75B46089A39
:1052A000FBF718F80B9B9B5C0A9A521E0A9213702C
:1052B00050EA0102F2D10A98ADEB000000F1200B98
:1052C000600702D524F4803401E04FF00109D9458C
:1052D00002DDA9EB0B0000E0002000EB0B014144D4
:1052E0000890AAEB010AE00306D4DDE90F2321466A
:1052F000504600F063F806444FF0000908E009A9A1
:1053000011F80900DDE90F12904709F10109761C37
:10531000C145F4DBE0030CD5DDE90F2321465046FF
:1053200000F04CF8064404E0DDE90F12302090470D
:10533000761C0899481E08900029F5DC08E00A98B8
:105340000A990078491C0A91DDE90F129047761CF2
:10535000BBF10001ABF1010BF1DC21465046DDE968
:105360000F2300F019F806446D1C21E609280100FE
:1053700030313233343536373839616263646566CB
:10538000000000003031323334353637383941428D
:1053900043444546000000002DE9F0410446002545
:1053A0001E461746880404D405E039462020B0473D
:1053B0006D1C641EF9D52846BDE8F0812DE9F04149
:1053C000044600251E469046C80301D5302700E05C
:1053D0002027880404D505E041463846B0476D1CB7
:1053E000641EF9D52846BDE8F0810A68531C0B609D
:1053F0001070704704490A681206FCD5024AC1B20F
:105400000C321160704700001C380140FBF7EEFEC3
:10541000FEF76FFDFDF748FEFDF774FDFDF7A0FEFA
:10542000FDF70CFFFDF758FFFDF78AFFFDF7BCFF06
:10543000FDF7B0FD00F012F8FDF7EAFD00F020F8EE
:10544000FEE710B5EFF3058111B16FF0050403E03D
:10545000002408B100F088FE204610BDEFF305805F
:1054600010B16FF0050070470448016811B14FF0AA
:10547000FF3070470121016000207047900000203C
:1054800010B5EFF3058010B16FF0050010BD0848AE
:105490000168012902D04FF0FF3010BD054A0021FC
:1054A00082F8141D0221016000F01EFF002010BDD3
:1054B000900000200BE000E0F8B51D466FF00302FD
:1054C0006FF002064FF00004EFF30583A3B1F0B1D3
:1054D000E9B1E5B9002200926A4601F057FA0128C5
:1054E00017D10098B0B10C494FF080500860BFF35D
:1054F0004F8FBFF36F8F0DE048B141B12A4601F0E5
:10550000A9F9012806D025B16FF0010402E0144684
:1055100000E034462046F8BD04ED00E0F8B514463E
:105520004FF00005EFF3058212BB08B301B3A4B13D
:10553000D4E9023263B1502A1AD32269C2B1676931
:1055400000FB01F6B74213D3009500F0FCFF07E023
:1055500072B9226962B9626952B9002200F0D2FFC1
:10556000050005D00CB1216800E0002100F0C6FD67
:105570002846F8BD2DE9FF414FEA01034FF0000531
:10558000EFF30581039549BB40B380271821002420
:105590004AB3166806B1344696691EB13146761E86
:1055A000382E02D21679F60703D0002004B0BDE8E9
:1055B000F081566906B1B708D2F808C0BCF1000FF7
:1055C0000DD0D5685C2D18D312693AB136B18DE88B
:1055D00006103A46214601F08EFA03900DE0D66897
:1055E0005EB912694AB903AACDE90012BAB22146DE
:1055F00001F054FA012800D003950398D6E7000083
:105600002DE9F041134C0F460546E6682068001D61
:1056100000F076FC681C07D137B12168BDE8F04185
:105620000D48091D00F0BCBC20683544B5424560FA
:10563000216805D2A06BBDE8F041091D00F098BCBF
:10564000606B091D00F094FCA06A854200D2A5623F
:10565000BDE8F08140000020E80D00202DE9F04178
:10566000054600F0A9FC2D4CA068401CA0602068F5
:105670002B4F10B1606930B32BE02560A068012882
:1056800027D1002606EB860007EB800000F062FCC5
:10569000761C382EF6D3234800F05CFC21481430E9
:1056A00000F058FC1F48283000F054FC1D483C30E6
:1056B00000F050FC1B48503000F04CFC194860636F
:1056C0001430A06305E02068E96AC06A884200D807
:1056D0002560606A401C60626864E86A21698842EB
:1056E00000D9206100EB800007EB8000291D00F04D
:1056F00057FC00F081FC606900280CD02068E96A42
:10570000C06A884207D208494FF080500860BFF352
:105710004F8FBFF36F8FBDE8F08100004000002085
:1057200038090020980D002004ED00E038B500F0A5
:1057300043FC104C2068C8B90F4800F00BFC0E4821
:10574000143000F007FC0C48E060143020610A4B74
:105750000020F03B009003F1500210210A2000F0DD
:10576000F2FE206010B105A100F0C8FCBDE8384091
:1057700000F042BC7C000020EC0E0020546D725101
:105780000000000030B4026C0B46002A0BD0C16848
:105790001144C1608468A14201D30168C16030BC7A
:1057A0001846FAF7C8BD30BC70472DE9F041856B4B
:1057B000174604460026026C82B1C7B1E068FAF7CA
:1057C000BAFDE168206C091AE1602268914202D2B8
:1057D000A168081AE060022F16D017E02068A8B967
:1057E000A06801F02BFA06460020A0600EE0606879
:1057F000FAF7A1FD216C606808446060A1688842E6
:1058000004D32068606001E005B16D1E6D1CA563C6
:105810003046BDE8F08110B5044690F8590058B103
:1058200001280CD002280FD0502080F31188BFF33C
:105830004F8FBFF36F8FFEE7206B00F0F1FB204628
:10584000BDE8104000F0ECBB10BD00000F4842F274
:105850001071420705D0C01D0C4A20F00700821AC3
:10586000891A0B4A00230144C2E900030839183A97
:1058700021F0070111604B600B600B1AC0E90013A7
:1058800093604FF00040536050617047CC1500208A
:10589000AC000020144E154CA6F29C474FF08058E7
:1058A000DFF84C9012E000BF00F086FBF068C5689E
:1058B000281D00F025FBA068401EA0606068401E07
:1058C000606000F099FB2846FFF7A5FF606800289C
:1058D000EAD138680128F9D9C9F80080BFF34F8FA1
:1058E000BFF36F8FF2E70000D40D002040000020CE
:1058F00004ED00E070B51D46049C51B1C4F80020D1
:10590000C4E90F010121204600F050FE84F84C50FC
:1059100070BD2460F4E700002DE9F05F8846DDE902
:105920000B941546834691009A460A9EA522206B49
:10593000FAF713FD6FF00301206B01EB85010844BA
:1059400020F00707780707D0502080F31188BFF3B5
:105950004F8FBFF36F8FFEE70025B8F1000F0FD018
:105960005FF00000221818F8001082F8341018F8C0
:10597000001011B1401C1028F4D384F8435001E00A
:1059800084F83450382E00D33726E662C4E9136514
:10599000201D00F0EAFA04F1180000F0E6FA246194
:1059A000C6F138006462A061656584F858505246BB
:1059B0005946384600F05AFA2060B9F1000F01D07C
:1059C000C9F80040BDE8F09F30B5114900E011462C
:1059D0000A688242FBD34B685C18844203D140685A
:1059E00018444860084643681C18944209D1084C82
:1059F000183C2468A24209D052681A4442600A68DE
:105A000012680260814200D0086030BD0460F9E78E
:105A1000AC00002070B5002441600B4D0061914244
:105A200006D8D11A8269914206D2011D286907E081
:105A30009A4203D2994201D3012403E0011DE86890
:105A400000F096FA204670BD7C00002010B5044698
:105A500000F0B2FAA06B28B15FF0000400F0CCFABD
:105A6000204610BD0124F9E730B589B03C4D6EE009
:105A70000498002806DADDE90601059A90470498A3
:105A8000002864DB069C606910B1201D00F038FA24
:105A900003A800F0D7F8024604980A2857D2DFE896
:105AA00000F00505052D334A05052D3394F828002F
:105AB00040F0010084F828000599A069059B014485
:105AC0002046FFF7A7FF68B3216A2046884794F86D
:105AD000280040073BD5002000900598A1690023CD
